{
  "_format": "hh-sol-artifact-1",
  "contractName": "SUMilanCertificate",
  "sourceName": "contracts/SUMilanCertificateUpgradeable.sol",
  "abi": [
    {
      "inputs": [],
      "stateMutability": "nonpayable",
      "type": "constructor"
    },
    {
      "anonymous": false,
      "inputs": [
        {
          "indexed": false,
          "internalType": "address",
          "name": "previousAdmin",
          "type": "address"
        },
        {
          "indexed": false,
          "internalType": "address",
          "name": "newAdmin",
          "type": "address"
        }
      ],
      "name": "AdminChanged",
      "type": "event"
    },
    {
      "anonymous": false,
      "inputs": [
        {
          "indexed": true,
          "internalType": "address",
          "name": "owner",
          "type": "address"
        },
        {
          "indexed": true,
          "internalType": "address",
          "name": "approved",
          "type": "address"
        },
        {
          "indexed": true,
          "internalType": "uint256",
          "name": "tokenId",
          "type": "uint256"
        }
      ],
      "name": "Approval",
      "type": "event"
    },
    {
      "anonymous": false,
      "inputs": [
        {
          "indexed": true,
          "internalType": "address",
          "name": "owner",
          "type": "address"
        },
        {
          "indexed": true,
          "internalType": "address",
          "name": "operator",
          "type": "address"
        },
        {
          "indexed": false,
          "internalType": "bool",
          "name": "approved",
          "type": "bool"
        }
      ],
      "name": "ApprovalForAll",
      "type": "event"
    },
    {
      "anonymous": false,
      "inputs": [
        {
          "indexed": true,
          "internalType": "address",
          "name": "beacon",
          "type": "address"
        }
      ],
      "name": "BeaconUpgraded",
      "type": "event"
    },
    {
      "anonymous": false,
      "inputs": [
        {
          "indexed": true,
          "internalType": "address",
          "name": "previousOwner",
          "type": "address"
        },
        {
          "indexed": true,
          "internalType": "address",
          "name": "newOwner",
          "type": "address"
        }
      ],
      "name": "OwnershipTransferred",
      "type": "event"
    },
    {
      "anonymous": false,
      "inputs": [
        {
          "indexed": true,
          "internalType": "address",
          "name": "from",
          "type": "address"
        },
        {
          "indexed": true,
          "internalType": "address",
          "name": "to",
          "type": "address"
        },
        {
          "indexed": true,
          "internalType": "uint256",
          "name": "tokenId",
          "type": "uint256"
        }
      ],
      "name": "Transfer",
      "type": "event"
    },
    {
      "anonymous": false,
      "inputs": [
        {
          "indexed": true,
          "internalType": "address",
          "name": "implementation",
          "type": "address"
        }
      ],
      "name": "Upgraded",
      "type": "event"
    },
    {
      "inputs": [
        {
          "internalType": "address",
          "name": "to",
          "type": "address"
        },
        {
          "internalType": "uint256",
          "name": "tokenId",
          "type": "uint256"
        }
      ],
      "name": "approve",
      "outputs": [],
      "stateMutability": "nonpayable",
      "type": "function"
    },
    {
      "inputs": [
        {
          "internalType": "address",
          "name": "owner",
          "type": "address"
        }
      ],
      "name": "balanceOf",
      "outputs": [
        {
          "internalType": "uint256",
          "name": "",
          "type": "uint256"
        }
      ],
      "stateMutability": "view",
      "type": "function"
    },
    {
      "inputs": [
        {
          "internalType": "uint256",
          "name": "tokenId",
          "type": "uint256"
        }
      ],
      "name": "getApproved",
      "outputs": [
        {
          "internalType": "address",
          "name": "",
          "type": "address"
        }
      ],
      "stateMutability": "view",
      "type": "function"
    },
    {
      "inputs": [],
      "name": "initialize",
      "outputs": [],
      "stateMutability": "nonpayable",
      "type": "function"
    },
    {
      "inputs": [
        {
          "internalType": "address",
          "name": "owner",
          "type": "address"
        },
        {
          "internalType": "address",
          "name": "operator",
          "type": "address"
        }
      ],
      "name": "isApprovedForAll",
      "outputs": [
        {
          "internalType": "bool",
          "name": "",
          "type": "bool"
        }
      ],
      "stateMutability": "view",
      "type": "function"
    },
    {
      "inputs": [
        {
          "internalType": "address",
          "name": "to",
          "type": "address"
        },
        {
          "internalType": "string",
          "name": "tokenUri",
          "type": "string"
        },
        {
          "internalType": "string",
          "name": "eventId",
          "type": "string"
        }
      ],
      "name": "mintCertificate",
      "outputs": [
        {
          "internalType": "uint256",
          "name": "",
          "type": "uint256"
        }
      ],
      "stateMutability": "nonpayable",
      "type": "function"
    },
    {
      "inputs": [],
      "name": "name",
      "outputs": [
        {
          "internalType": "string",
          "name": "",
          "type": "string"
        }
      ],
      "stateMutability": "view",
      "type": "function"
    },
    {
      "inputs": [],
      "name": "owner",
      "outputs": [
        {
          "internalType": "address",
          "name": "",
          "type": "address"
        }
      ],
      "stateMutability": "view",
      "type": "function"
    },
    {
      "inputs": [
        {
          "internalType": "uint256",
          "name": "tokenId",
          "type": "uint256"
        }
      ],
      "name": "ownerOf",
      "outputs": [
        {
          "internalType": "address",
          "name": "",
          "type": "address"
        }
      ],
      "stateMutability": "view",
      "type": "function"
    },
    {
      "inputs": [],
      "name": "renounceOwnership",
      "outputs": [],
      "stateMutability": "nonpayable",
      "type": "function"
    },
    {
      "inputs": [
        {
          "internalType": "address",
          "name": "from",
          "type": "address"
        },
        {
          "internalType": "address",
          "name": "to",
          "type": "address"
        },
        {
          "internalType": "uint256",
          "name": "tokenId",
          "type": "uint256"
        }
      ],
      "name": "safeTransferFrom",
      "outputs": [],
      "stateMutability": "nonpayable",
      "type": "function"
    },
    {
      "inputs": [
        {
          "internalType": "address",
          "name": "from",
          "type": "address"
        },
        {
          "internalType": "address",
          "name": "to",
          "type": "address"
        },
        {
          "internalType": "uint256",
          "name": "tokenId",
          "type": "uint256"
        },
        {
          "internalType": "bytes",
          "name": "_data",
          "type": "bytes"
        }
      ],
      "name": "safeTransferFrom",
      "outputs": [],
      "stateMutability": "nonpayable",
      "type": "function"
    },
    {
      "inputs": [
        {
          "internalType": "address",
          "name": "operator",
          "type": "address"
        },
        {
          "internalType": "bool",
          "name": "approved",
          "type": "bool"
        }
      ],
      "name": "setApprovalForAll",
      "outputs": [],
      "stateMutability": "nonpayable",
      "type": "function"
    },
    {
      "inputs": [
        {
          "internalType": "bytes4",
          "name": "interfaceId",
          "type": "bytes4"
        }
      ],
      "name": "supportsInterface",
      "outputs": [
        {
          "internalType": "bool",
          "name": "",
          "type": "bool"
        }
      ],
      "stateMutability": "view",
      "type": "function"
    },
    {
      "inputs": [],
      "name": "symbol",
      "outputs": [
        {
          "internalType": "string",
          "name": "",
          "type": "string"
        }
      ],
      "stateMutability": "view",
      "type": "function"
    },
    {
      "inputs": [
        {
          "internalType": "uint256",
          "name": "index",
          "type": "uint256"
        }
      ],
      "name": "tokenByIndex",
      "outputs": [
        {
          "internalType": "uint256",
          "name": "",
          "type": "uint256"
        }
      ],
      "stateMutability": "view",
      "type": "function"
    },
    {
      "inputs": [
        {
          "internalType": "address",
          "name": "owner",
          "type": "address"
        },
        {
          "internalType": "uint256",
          "name": "index",
          "type": "uint256"
        }
      ],
      "name": "tokenOfOwnerByIndex",
      "outputs": [
        {
          "internalType": "uint256",
          "name": "",
          "type": "uint256"
        }
      ],
      "stateMutability": "view",
      "type": "function"
    },
    {
      "inputs": [
        {
          "internalType": "uint256",
          "name": "tokenId",
          "type": "uint256"
        }
      ],
      "name": "tokenURI",
      "outputs": [
        {
          "internalType": "string",
          "name": "",
          "type": "string"
        }
      ],
      "stateMutability": "view",
      "type": "function"
    },
    {
      "inputs": [],
      "name": "totalSupply",
      "outputs": [
        {
          "internalType": "uint256",
          "name": "",
          "type": "uint256"
        }
      ],
      "stateMutability": "view",
      "type": "function"
    },
    {
      "inputs": [
        {
          "internalType": "address",
          "name": "from",
          "type": "address"
        },
        {
          "internalType": "address",
          "name": "to",
          "type": "address"
        },
        {
          "internalType": "uint256",
          "name": "tokenId",
          "type": "uint256"
        }
      ],
      "name": "transferFrom",
      "outputs": [],
      "stateMutability": "nonpayable",
      "type": "function"
    },
    {
      "inputs": [
        {
          "internalType": "address",
          "name": "newOwner",
          "type": "address"
        }
      ],
      "name": "transferOwnership",
      "outputs": [],
      "stateMutability": "nonpayable",
      "type": "function"
    },
    {
      "inputs": [
        {
          "internalType": "address",
          "name": "newImplementation",
          "type": "address"
        }
      ],
      "name": "upgradeTo",
      "outputs": [],
      "stateMutability": "nonpayable",
      "type": "function"
    },
    {
      "inputs": [
        {
          "internalType": "address",
          "name": "newImplementation",
          "type": "address"
        },
        {
          "internalType": "bytes",
          "name": "data",
          "type": "bytes"
        }
      ],
      "name": "upgradeToAndCall",
      "outputs": [],
      "stateMutability": "payable",
      "type": "function"
    }
  ],
  "bytecode": "0x60a06040523073ffffffffffffffffffffffffffffffffffffffff1660809073ffffffffffffffffffffffffffffffffffffffff168152503480156200004457600080fd5b50600060019054906101000a900460ff16806200006c575060008054906101000a900460ff16155b620000ae576040517f08c379a0000000000000000000000000000000000000000000000000000000008152600401620000a590620001af565b60405180910390fd5b60008060019054906101000a900460ff161590508015620000ff576001600060016101000a81548160ff02191690831515021790555060016000806101000a81548160ff0219169083151502179055505b8015620001215760008060016101000a81548160ff0219169083151502179055505b50620001d1565b600082825260208201905092915050565b7f496e697469616c697a61626c653a20636f6e747261637420697320616c72656160008201527f647920696e697469616c697a6564000000000000000000000000000000000000602082015250565b600062000197602e8362000128565b9150620001a48262000139565b604082019050919050565b60006020820190508181036000830152620001ca8162000188565b9050919050565b6080516150df62000202600039600081816108d40152818161096301528181610a7d0152610b0c01526150df6000f3fe6080604052600436106101405760003560e01c80636352211e116100b657806395d89b411161006f57806395d89b411461045f578063a22cb4651461048a578063b88d4fde146104b3578063c87b56dd146104dc578063e985e9c514610519578063f2fde38b1461055657610140565b80636352211e1461034f5780636b55243d1461038c57806370a08231146103c9578063715018a6146104065780638129fc1c1461041d5780638da5cb5b1461043457610140565b806323b872dd1161010857806323b872dd1461023e5780632f745c59146102675780633659cfe6146102a457806342842e0e146102cd5780634f1ef286146102f65780634f6ccce71461031257610140565b806301ffc9a71461014557806306fdde0314610182578063081812fc146101ad578063095ea7b3146101ea57806318160ddd14610213575b600080fd5b34801561015157600080fd5b5061016c600480360381019061016791906136d6565b61057f565b604051610179919061371e565b60405180910390f35b34801561018e57600080fd5b50610197610591565b6040516101a491906137d2565b60405180910390f35b3480156101b957600080fd5b506101d460048036038101906101cf919061382a565b610623565b6040516101e19190613898565b60405180910390f35b3480156101f657600080fd5b50610211600480360381019061020c91906138df565b6106a8565b005b34801561021f57600080fd5b506102286107c0565b604051610235919061392e565b60405180910390f35b34801561024a57600080fd5b5061026560048036038101906102609190613949565b6107cd565b005b34801561027357600080fd5b5061028e600480360381019061028991906138df565b61082d565b60405161029b919061392e565b60405180910390f35b3480156102b057600080fd5b506102cb60048036038101906102c6919061399c565b6108d2565b005b3480156102d957600080fd5b506102f460048036038101906102ef9190613949565b610a5b565b005b610310600480360381019061030b9190613afe565b610a7b565b005b34801561031e57600080fd5b506103396004803603810190610334919061382a565b610bb8565b604051610346919061392e565b60405180910390f35b34801561035b57600080fd5b506103766004803603810190610371919061382a565b610c29565b6040516103839190613898565b60405180910390f35b34801561039857600080fd5b506103b360048036038101906103ae9190613bfb565b610cdb565b6040516103c0919061392e565b60405180910390f35b3480156103d557600080fd5b506103f060048036038101906103eb919061399c565b610ec3565b6040516103fd919061392e565b60405180910390f35b34801561041257600080fd5b5061041b610f7b565b005b34801561042957600080fd5b50610432611003565b005b34801561044057600080fd5b50610449611160565b6040516104569190613898565b60405180910390f35b34801561046b57600080fd5b5061047461118a565b60405161048191906137d2565b60405180910390f35b34801561049657600080fd5b506104b160048036038101906104ac9190613cb2565b61121c565b005b3480156104bf57600080fd5b506104da60048036038101906104d59190613cf2565b61139d565b005b3480156104e857600080fd5b5061050360048036038101906104fe919061382a565b6113ff565b60405161051091906137d2565b60405180910390f35b34801561052557600080fd5b50610540600480360381019061053b9190613d75565b611411565b60405161054d919061371e565b60405180910390f35b34801561056257600080fd5b5061057d6004803603810190610578919061399c565b6114a5565b005b600061058a8261159d565b9050919050565b6060606580546105a090613de4565b80601f01602080910402602001604051908101604052809291908181526020018280546105cc90613de4565b80156106195780601f106105ee57610100808354040283529160200191610619565b820191906000526020600020905b8154815290600101906020018083116105fc57829003601f168201915b5050505050905090565b600061062e82611617565b61066d576040517f08c379a000000000000000000000000000000000000000000000000000000000815260040161066490613e88565b60405180910390fd5b6069600083815260200190815260200160002060009054906101000a900473ffffffffffffffffffffffffffffffffffffffff169050919050565b60006106b382610c29565b90508073ffffffffffffffffffffffffffffffffffffffff168373ffffffffffffffffffffffffffffffffffffffff161415610724576040517f08c379a000000000000000000000000000000000000000000000000000000000815260040161071b90613f1a565b60405180910390fd5b8073ffffffffffffffffffffffffffffffffffffffff16610743611683565b73ffffffffffffffffffffffffffffffffffffffff16148061077257506107718161076c611683565b611411565b5b6107b1576040517f08c379a00000000000000000000000000000000000000000000000000000000081526004016107a890613fac565b60405180910390fd5b6107bb838361168b565b505050565b600060cb80549050905090565b6107de6107d8611683565b82611744565b61081d576040517f08c379a00000000000000000000000000000000000000000000000000000000081526004016108149061403e565b60405180910390fd5b610828838383611822565b505050565b600061083883610ec3565b8210610879576040517f08c379a0000000000000000000000000000000000000000000000000000000008152600401610870906140d0565b60405180910390fd5b60c960008473ffffffffffffffffffffffffffffffffffffffff1673ffffffffffffffffffffffffffffffffffffffff168152602001908152602001600020600083815260200190815260200160002054905092915050565b7f000000000000000000000000000000000000000000000000000000000000000073ffffffffffffffffffffffffffffffffffffffff163073ffffffffffffffffffffffffffffffffffffffff161415610961576040517f08c379a000000000000000000000000000000000000000000000000000000000815260040161095890614162565b60405180910390fd5b7f000000000000000000000000000000000000000000000000000000000000000073ffffffffffffffffffffffffffffffffffffffff166109a0611a7e565b73ffffffffffffffffffffffffffffffffffffffff16146109f6576040517f08c379a00000000000000000000000000000000000000000000000000000000081526004016109ed906141f4565b60405180910390fd5b6109ff81611ad5565b610a5881600067ffffffffffffffff811115610a1e57610a1d6139d3565b5b6040519080825280601f01601f191660200182016040528015610a505781602001600182028036833780820191505090505b506000611b54565b50565b610a768383836040518060200160405280600081525061139d565b505050565b7f000000000000000000000000000000000000000000000000000000000000000073ffffffffffffffffffffffffffffffffffffffff163073ffffffffffffffffffffffffffffffffffffffff161415610b0a576040517f08c379a0000000000000000000000000000000000000000000000000000000008152600401610b0190614162565b60405180910390fd5b7f000000000000000000000000000000000000000000000000000000000000000073ffffffffffffffffffffffffffffffffffffffff16610b49611a7e565b73ffffffffffffffffffffffffffffffffffffffff1614610b9f576040517f08c379a0000000000000000000000000000000000000000000000000000000008152600401610b96906141f4565b60405180910390fd5b610ba882611ad5565b610bb482826001611b54565b5050565b6000610bc26107c0565b8210610c03576040517f08c379a0000000000000000000000000000000000000000000000000000000008152600401610bfa90614286565b60405180910390fd5b60cb8281548110610c1757610c166142a6565b5b90600052602060002001549050919050565b6000806067600084815260200190815260200160002060009054906101000a900473ffffffffffffffffffffffffffffffffffffffff169050600073ffffffffffffffffffffffffffffffffffffffff168173ffffffffffffffffffffffffffffffffffffffff161415610cd2576040517f08c379a0000000000000000000000000000000000000000000000000000000008152600401610cc990614347565b60405180910390fd5b80915050919050565b6000610ce5611683565b73ffffffffffffffffffffffffffffffffffffffff16610d03611160565b73ffffffffffffffffffffffffffffffffffffffff1614610d59576040517f08c379a0000000000000000000000000000000000000000000000000000000008152600401610d50906143b3565b60405180910390fd5b600061019260008673ffffffffffffffffffffffffffffffffffffffff1673ffffffffffffffffffffffffffffffffffffffff16815260200190815260200160002060000183604051610dac919061440f565b908152602001604051809103902060009054906101000a900460ff1690506000151581151514610e11576040517f08c379a0000000000000000000000000000000000000000000000000000000008152600401610e0890614498565b60405180910390fd5b610e1c610191611d25565b6000610e29610191611d3b565b9050610e358682611d49565b610e3f8186611f17565b600161019260008873ffffffffffffffffffffffffffffffffffffffff1673ffffffffffffffffffffffffffffffffffffffff16815260200190815260200160002060000185604051610e92919061440f565b908152602001604051809103902060006101000a81548160ff02191690831515021790555080925050509392505050565b60008073ffffffffffffffffffffffffffffffffffffffff168273ffffffffffffffffffffffffffffffffffffffff161415610f34576040517f08c379a0000000000000000000000000000000000000000000000000000000008152600401610f2b9061452a565b60405180910390fd5b606860008373ffffffffffffffffffffffffffffffffffffffff1673ffffffffffffffffffffffffffffffffffffffff168152602001908152602001600020549050919050565b610f83611683565b73ffffffffffffffffffffffffffffffffffffffff16610fa1611160565b73ffffffffffffffffffffffffffffffffffffffff1614610ff7576040517f08c379a0000000000000000000000000000000000000000000000000000000008152600401610fee906143b3565b60405180910390fd5b6110016000611f8b565b565b600060019054906101000a900460ff1680611029575060008054906101000a900460ff16155b611068576040517f08c379a000000000000000000000000000000000000000000000000000000000815260040161105f906145bc565b60405180910390fd5b60008060019054906101000a900460ff1615905080156110b8576001600060016101000a81548160ff02191690831515021790555060016000806101000a81548160ff0219169083151502179055505b61112c6040518060400160405280601281526020017f53554d696c616e436572746966696361746500000000000000000000000000008152506040518060400160405280600381526020017f53554d0000000000000000000000000000000000000000000000000000000000815250612051565b611134612146565b61113c61222f565b801561115d5760008060016101000a81548160ff0219169083151502179055505b50565b600060fb60009054906101000a900473ffffffffffffffffffffffffffffffffffffffff16905090565b60606066805461119990613de4565b80601f01602080910402602001604051908101604052809291908181526020018280546111c590613de4565b80156112125780601f106111e757610100808354040283529160200191611212565b820191906000526020600020905b8154815290600101906020018083116111f557829003601f168201915b5050505050905090565b611224611683565b73ffffffffffffffffffffffffffffffffffffffff168273ffffffffffffffffffffffffffffffffffffffff161415611292576040517f08c379a000000000000000000000000000000000000000000000000000000000815260040161128990614628565b60405180910390fd5b80606a600061129f611683565b73ffffffffffffffffffffffffffffffffffffffff1673ffffffffffffffffffffffffffffffffffffffff16815260200190815260200160002060008473ffffffffffffffffffffffffffffffffffffffff1673ffffffffffffffffffffffffffffffffffffffff16815260200190815260200160002060006101000a81548160ff0219169083151502179055508173ffffffffffffffffffffffffffffffffffffffff1661134c611683565b73ffffffffffffffffffffffffffffffffffffffff167f17307eab39ab6107e8899845ad3d59bd9653f200f220920489ca2b5937696c3183604051611391919061371e565b60405180910390a35050565b6113ae6113a8611683565b83611744565b6113ed576040517f08c379a00000000000000000000000000000000000000000000000000000000081526004016113e49061403e565b60405180910390fd5b6113f984848484612318565b50505050565b606061140a82612374565b9050919050565b6000606a60008473ffffffffffffffffffffffffffffffffffffffff1673ffffffffffffffffffffffffffffffffffffffff16815260200190815260200160002060008373ffffffffffffffffffffffffffffffffffffffff1673ffffffffffffffffffffffffffffffffffffffff16815260200190815260200160002060009054906101000a900460ff16905092915050565b6114ad611683565b73ffffffffffffffffffffffffffffffffffffffff166114cb611160565b73ffffffffffffffffffffffffffffffffffffffff1614611521576040517f08c379a0000000000000000000000000000000000000000000000000000000008152600401611518906143b3565b60405180910390fd5b600073ffffffffffffffffffffffffffffffffffffffff168173ffffffffffffffffffffffffffffffffffffffff161415611591576040517f08c379a0000000000000000000000000000000000000000000000000000000008152600401611588906146ba565b60405180910390fd5b61159a81611f8b565b50565b60007f780e9d63000000000000000000000000000000000000000000000000000000007bffffffffffffffffffffffffffffffffffffffffffffffffffffffff1916827bffffffffffffffffffffffffffffffffffffffffffffffffffffffff19161480611610575061160f826124c6565b5b9050919050565b60008073ffffffffffffffffffffffffffffffffffffffff166067600084815260200190815260200160002060009054906101000a900473ffffffffffffffffffffffffffffffffffffffff1673ffffffffffffffffffffffffffffffffffffffff1614159050919050565b600033905090565b816069600083815260200190815260200160002060006101000a81548173ffffffffffffffffffffffffffffffffffffffff021916908373ffffffffffffffffffffffffffffffffffffffff160217905550808273ffffffffffffffffffffffffffffffffffffffff166116fe83610c29565b73ffffffffffffffffffffffffffffffffffffffff167f8c5be1e5ebec7d5bd14f71427d1e84f3dd0314c0f7b2291e5b200ac8c7c3b92560405160405180910390a45050565b600061174f82611617565b61178e576040517f08c379a00000000000000000000000000000000000000000000000000000000081526004016117859061474c565b60405180910390fd5b600061179983610c29565b90508073ffffffffffffffffffffffffffffffffffffffff168473ffffffffffffffffffffffffffffffffffffffff16148061180857508373ffffffffffffffffffffffffffffffffffffffff166117f084610623565b73ffffffffffffffffffffffffffffffffffffffff16145b8061181957506118188185611411565b5b91505092915050565b8273ffffffffffffffffffffffffffffffffffffffff1661184282610c29565b73ffffffffffffffffffffffffffffffffffffffff1614611898576040517f08c379a000000000000000000000000000000000000000000000000000000000815260040161188f906147de565b60405180910390fd5b600073ffffffffffffffffffffffffffffffffffffffff168273ffffffffffffffffffffffffffffffffffffffff161415611908576040517f08c379a00000000000000000000000000000000000000000000000000000000081526004016118ff90614870565b60405180910390fd5b6119138383836125a8565b61191e60008261168b565b6001606860008573ffffffffffffffffffffffffffffffffffffffff1673ffffffffffffffffffffffffffffffffffffffff168152602001908152602001600020600082825461196e91906148bf565b925050819055506001606860008473ffffffffffffffffffffffffffffffffffffffff1673ffffffffffffffffffffffffffffffffffffffff16815260200190815260200160002060008282546119c591906148f3565b92505081905550816067600083815260200190815260200160002060006101000a81548173ffffffffffffffffffffffffffffffffffffffff021916908373ffffffffffffffffffffffffffffffffffffffff160217905550808273ffffffffffffffffffffffffffffffffffffffff168473ffffffffffffffffffffffffffffffffffffffff167fddf252ad1be2c89b69c2b068fc378daa952ba7f163c4a11628f55a4df523b3ef60405160405180910390a4505050565b6000611aac7f360894a13ba1a3210667c828492db98dca3e2076cc3735a920a3ca505d382bbc60001b6125b8565b60000160009054906101000a900473ffffffffffffffffffffffffffffffffffffffff16905090565b611add611683565b73ffffffffffffffffffffffffffffffffffffffff16611afb611160565b73ffffffffffffffffffffffffffffffffffffffff1614611b51576040517f08c379a0000000000000000000000000000000000000000000000000000000008152600401611b48906143b3565b60405180910390fd5b50565b6000611b5e611a7e565b9050611b69846125c2565b600083511180611b765750815b15611b8757611b85848461267b565b505b6000611bb57f4910fdfa16fed3260ed0e7147f7cc6da11a60208b5b9406d12a635614ffd914360001b61275f565b90508060000160009054906101000a900460ff16611d1e5760018160000160006101000a81548160ff021916908315150217905550611c818583604051602401611bff9190613898565b6040516020818303038152906040527f3659cfe6000000000000000000000000000000000000000000000000000000007bffffffffffffffffffffffffffffffffffffffffffffffffffffffff19166020820180517bffffffffffffffffffffffffffffffffffffffffffffffffffffffff838183161783525050505061267b565b5060008160000160006101000a81548160ff021916908315150217905550611ca7611a7e565b73ffffffffffffffffffffffffffffffffffffffff168273ffffffffffffffffffffffffffffffffffffffff1614611d14576040517f08c379a0000000000000000000000000000000000000000000000000000000008152600401611d0b906149bb565b60405180910390fd5b611d1d85612769565b5b5050505050565b6001816000016000828254019250508190555050565b600081600001549050919050565b600073ffffffffffffffffffffffffffffffffffffffff168273ffffffffffffffffffffffffffffffffffffffff161415611db9576040517f08c379a0000000000000000000000000000000000000000000000000000000008152600401611db090614a27565b60405180910390fd5b611dc281611617565b15611e02576040517f08c379a0000000000000000000000000000000000000000000000000000000008152600401611df990614a93565b60405180910390fd5b611e0e600083836125a8565b6001606860008473ffffffffffffffffffffffffffffffffffffffff1673ffffffffffffffffffffffffffffffffffffffff1681526020019081526020016000206000828254611e5e91906148f3565b92505081905550816067600083815260200190815260200160002060006101000a81548173ffffffffffffffffffffffffffffffffffffffff021916908373ffffffffffffffffffffffffffffffffffffffff160217905550808273ffffffffffffffffffffffffffffffffffffffff16600073ffffffffffffffffffffffffffffffffffffffff167fddf252ad1be2c89b69c2b068fc378daa952ba7f163c4a11628f55a4df523b3ef60405160405180910390a45050565b611f2082611617565b611f5f576040517f08c379a0000000000000000000000000000000000000000000000000000000008152600401611f5690614b25565b60405180910390fd5b80609760008481526020019081526020016000209080519060200190611f869291906135c7565b505050565b600060fb60009054906101000a900473ffffffffffffffffffffffffffffffffffffffff1690508160fb60006101000a81548173ffffffffffffffffffffffffffffffffffffffff021916908373ffffffffffffffffffffffffffffffffffffffff1602179055508173ffffffffffffffffffffffffffffffffffffffff168173ffffffffffffffffffffffffffffffffffffffff167f8be0079c531659141344cd1fd0a4f28419497f9722a3daafe3b4186f6b6457e060405160405180910390a35050565b600060019054906101000a900460ff1680612077575060008054906101000a900460ff16155b6120b6576040517f08c379a00000000000000000000000000000000000000000000000000000000081526004016120ad906145bc565b60405180910390fd5b60008060019054906101000a900460ff161590508015612106576001600060016101000a81548160ff02191690831515021790555060016000806101000a81548160ff0219169083151502179055505b61210e6127b8565b612116612891565b612120838361296a565b80156121415760008060016101000a81548160ff0219169083151502179055505b505050565b600060019054906101000a900460ff168061216c575060008054906101000a900460ff16155b6121ab576040517f08c379a00000000000000000000000000000000000000000000000000000000081526004016121a2906145bc565b60405180910390fd5b60008060019054906101000a900460ff1615905080156121fb576001600060016101000a81548160ff02191690831515021790555060016000806101000a81548160ff0219169083151502179055505b6122036127b8565b61220b612a73565b801561222c5760008060016101000a81548160ff0219169083151502179055505b50565b600060019054906101000a900460ff1680612255575060008054906101000a900460ff16155b612294576040517f08c379a000000000000000000000000000000000000000000000000000000000815260040161228b906145bc565b60405180910390fd5b60008060019054906101000a900460ff1615905080156122e4576001600060016101000a81548160ff02191690831515021790555060016000806101000a81548160ff0219169083151502179055505b6122ec612b5c565b6122f4612c35565b80156123155760008060016101000a81548160ff0219169083151502179055505b50565b612323848484611822565b61232f84848484612d0e565b61236e576040517f08c379a000000000000000000000000000000000000000000000000000000000815260040161236590614bb7565b60405180910390fd5b50505050565b606061237f82611617565b6123be576040517f08c379a00000000000000000000000000000000000000000000000000000000081526004016123b590614c49565b60405180910390fd5b60006097600084815260200190815260200160002080546123de90613de4565b80601f016020809104026020016040519081016040528092919081815260200182805461240a90613de4565b80156124575780601f1061242c57610100808354040283529160200191612457565b820191906000526020600020905b81548152906001019060200180831161243a57829003601f168201915b505050505090506000612468612ea5565b905060008151141561247e5781925050506124c1565b6000825111156124b357808260405160200161249b929190614c69565b604051602081830303815290604052925050506124c1565b6124bc84612ebc565b925050505b919050565b60007f80ac58cd000000000000000000000000000000000000000000000000000000007bffffffffffffffffffffffffffffffffffffffffffffffffffffffff1916827bffffffffffffffffffffffffffffffffffffffffffffffffffffffff1916148061259157507f5b5e139f000000000000000000000000000000000000000000000000000000007bffffffffffffffffffffffffffffffffffffffffffffffffffffffff1916827bffffffffffffffffffffffffffffffffffffffffffffffffffffffff1916145b806125a157506125a082612f63565b5b9050919050565b6125b3838383612fcd565b505050565b6000819050919050565b6125cb816130e1565b61260a576040517f08c379a000000000000000000000000000000000000000000000000000000000815260040161260190614cff565b60405180910390fd5b806126377f360894a13ba1a3210667c828492db98dca3e2076cc3735a920a3ca505d382bbc60001b6125b8565b60000160006101000a81548173ffffffffffffffffffffffffffffffffffffffff021916908373ffffffffffffffffffffffffffffffffffffffff16021790555050565b6060612686836130e1565b6126c5576040517f08c379a00000000000000000000000000000000000000000000000000000000081526004016126bc90614d91565b60405180910390fd5b6000808473ffffffffffffffffffffffffffffffffffffffff16846040516126ed9190614df8565b600060405180830381855af49150503d8060008114612728576040519150601f19603f3d011682016040523d82523d6000602084013e61272d565b606091505b50915091506127558282604051806060016040528060278152602001615083602791396130f4565b9250505092915050565b6000819050919050565b612772816125c2565b8073ffffffffffffffffffffffffffffffffffffffff167fbc7cd75a20ee27fd9adebab32041f755214dbc6bffa90cc0225b39da2e5c2d3b60405160405180910390a250565b600060019054906101000a900460ff16806127de575060008054906101000a900460ff16155b61281d576040517f08c379a0000000000000000000000000000000000000000000000000000000008152600401612814906145bc565b60405180910390fd5b60008060019054906101000a900460ff16159050801561286d576001600060016101000a81548160ff02191690831515021790555060016000806101000a81548160ff0219169083151502179055505b801561288e5760008060016101000a81548160ff0219169083151502179055505b50565b600060019054906101000a900460ff16806128b7575060008054906101000a900460ff16155b6128f6576040517f08c379a00000000000000000000000000000000000000000000000000000000081526004016128ed906145bc565b60405180910390fd5b60008060019054906101000a900460ff161590508015612946576001600060016101000a81548160ff02191690831515021790555060016000806101000a81548160ff0219169083151502179055505b80156129675760008060016101000a81548160ff0219169083151502179055505b50565b600060019054906101000a900460ff1680612990575060008054906101000a900460ff16155b6129cf576040517f08c379a00000000000000000000000000000000000000000000000000000000081526004016129c6906145bc565b60405180910390fd5b60008060019054906101000a900460ff161590508015612a1f576001600060016101000a81548160ff02191690831515021790555060016000806101000a81548160ff0219169083151502179055505b8260659080519060200190612a359291906135c7565b508160669080519060200190612a4c9291906135c7565b508015612a6e5760008060016101000a81548160ff0219169083151502179055505b505050565b600060019054906101000a900460ff1680612a99575060008054906101000a900460ff16155b612ad8576040517f08c379a0000000000000000000000000000000000000000000000000000000008152600401612acf906145bc565b60405180910390fd5b60008060019054906101000a900460ff161590508015612b28576001600060016101000a81548160ff02191690831515021790555060016000806101000a81548160ff0219169083151502179055505b612b38612b33611683565b611f8b565b8015612b595760008060016101000a81548160ff0219169083151502179055505b50565b600060019054906101000a900460ff1680612b82575060008054906101000a900460ff16155b612bc1576040517f08c379a0000000000000000000000000000000000000000000000000000000008152600401612bb8906145bc565b60405180910390fd5b60008060019054906101000a900460ff161590508015612c11576001600060016101000a81548160ff02191690831515021790555060016000806101000a81548160ff0219169083151502179055505b8015612c325760008060016101000a81548160ff0219169083151502179055505b50565b600060019054906101000a900460ff1680612c5b575060008054906101000a900460ff16155b612c9a576040517f08c379a0000000000000000000000000000000000000000000000000000000008152600401612c91906145bc565b60405180910390fd5b60008060019054906101000a900460ff161590508015612cea576001600060016101000a81548160ff02191690831515021790555060016000806101000a81548160ff0219169083151502179055505b8015612d0b5760008060016101000a81548160ff0219169083151502179055505b50565b6000612d2f8473ffffffffffffffffffffffffffffffffffffffff166130e1565b15612e98578373ffffffffffffffffffffffffffffffffffffffff1663150b7a02612d58611683565b8786866040518563ffffffff1660e01b8152600401612d7a9493929190614e59565b602060405180830381600087803b158015612d9457600080fd5b505af1925050508015612dc557506040513d601f19601f82011682018060405250810190612dc29190614eba565b60015b612e48573d8060008114612df5576040519150601f19603f3d011682016040523d82523d6000602084013e612dfa565b606091505b50600081511415612e40576040517f08c379a0000000000000000000000000000000000000000000000000000000008152600401612e3790614bb7565b60405180910390fd5b805181602001fd5b63150b7a0260e01b7bffffffffffffffffffffffffffffffffffffffffffffffffffffffff1916817bffffffffffffffffffffffffffffffffffffffffffffffffffffffff191614915050612e9d565b600190505b949350505050565b606060405180602001604052806000815250905090565b6060612ec782611617565b612f06576040517f08c379a0000000000000000000000000000000000000000000000000000000008152600401612efd90614f59565b60405180910390fd5b6000612f10612ea5565b90506000815111612f305760405180602001604052806000815250612f5b565b80612f3a8461315b565b604051602001612f4b929190614c69565b6040516020818303038152906040525b915050919050565b60007f01ffc9a7000000000000000000000000000000000000000000000000000000007bffffffffffffffffffffffffffffffffffffffffffffffffffffffff1916827bffffffffffffffffffffffffffffffffffffffffffffffffffffffff1916149050919050565b612fd88383836132bc565b600073ffffffffffffffffffffffffffffffffffffffff168373ffffffffffffffffffffffffffffffffffffffff16141561301b57613016816132c1565b61305a565b8173ffffffffffffffffffffffffffffffffffffffff168373ffffffffffffffffffffffffffffffffffffffff161461305957613058838261330a565b5b5b600073ffffffffffffffffffffffffffffffffffffffff168273ffffffffffffffffffffffffffffffffffffffff16141561309d5761309881613477565b6130dc565b8273ffffffffffffffffffffffffffffffffffffffff168273ffffffffffffffffffffffffffffffffffffffff16146130db576130da8282613548565b5b5b505050565b600080823b905060008111915050919050565b6060831561310457829050613154565b6000835111156131175782518084602001fd5b816040517f08c379a000000000000000000000000000000000000000000000000000000000815260040161314b91906137d2565b60405180910390fd5b9392505050565b606060008214156131a3576040518060400160405280600181526020017f300000000000000000000000000000000000000000000000000000000000000081525090506132b7565b600082905060005b600082146131d55780806131be90614f79565b915050600a826131ce9190614ff1565b91506131ab565b60008167ffffffffffffffff8111156131f1576131f06139d3565b5b6040519080825280601f01601f1916602001820160405280156132235781602001600182028036833780820191505090505b5090505b600085146132b05760018261323c91906148bf565b9150600a8561324b9190615022565b603061325791906148f3565b60f81b81838151811061326d5761326c6142a6565b5b60200101907effffffffffffffffffffffffffffffffffffffffffffffffffffffffffffff1916908160001a905350600a856132a99190614ff1565b9450613227565b8093505050505b919050565b505050565b60cb8054905060cc60008381526020019081526020016000208190555060cb81908060018154018082558091505060019003906000526020600020016000909190919091505550565b6000600161331784610ec3565b61332191906148bf565b9050600060ca600084815260200190815260200160002054905081811461340657600060c960008673ffffffffffffffffffffffffffffffffffffffff1673ffffffffffffffffffffffffffffffffffffffff16815260200190815260200160002060008481526020019081526020016000205490508060c960008773ffffffffffffffffffffffffffffffffffffffff1673ffffffffffffffffffffffffffffffffffffffff1681526020019081526020016000206000848152602001908152602001600020819055508160ca600083815260200190815260200160002081905550505b60ca60008481526020019081526020016000206000905560c960008573ffffffffffffffffffffffffffffffffffffffff1673ffffffffffffffffffffffffffffffffffffffff16815260200190815260200160002060008381526020019081526020016000206000905550505050565b6000600160cb8054905061348b91906148bf565b9050600060cc6000848152602001908152602001600020549050600060cb83815481106134bb576134ba6142a6565b5b906000526020600020015490508060cb83815481106134dd576134dc6142a6565b5b90600052602060002001819055508160cc60008381526020019081526020016000208190555060cc60008581526020019081526020016000206000905560cb80548061352c5761352b615053565b5b6001900381819060005260206000200160009055905550505050565b600061355383610ec3565b90508160c960008573ffffffffffffffffffffffffffffffffffffffff1673ffffffffffffffffffffffffffffffffffffffff1681526020019081526020016000206000838152602001908152602001600020819055508060ca600084815260200190815260200160002081905550505050565b8280546135d390613de4565b90600052602060002090601f0160209004810192826135f5576000855561363c565b82601f1061360e57805160ff191683800117855561363c565b8280016001018555821561363c579182015b8281111561363b578251825591602001919060010190613620565b5b509050613649919061364d565b5090565b5b8082111561366657600081600090555060010161364e565b5090565b6000604051905090565b600080fd5b600080fd5b60007fffffffff0000000000000000000000000000000000000000000000000000000082169050919050565b6136b38161367e565b81146136be57600080fd5b50565b6000813590506136d0816136aa565b92915050565b6000602082840312156136ec576136eb613674565b5b60006136fa848285016136c1565b91505092915050565b60008115159050919050565b61371881613703565b82525050565b6000602082019050613733600083018461370f565b92915050565b600081519050919050565b600082825260208201905092915050565b60005b83811015613773578082015181840152602081019050613758565b83811115613782576000848401525b50505050565b6000601f19601f8301169050919050565b60006137a482613739565b6137ae8185613744565b93506137be818560208601613755565b6137c781613788565b840191505092915050565b600060208201905081810360008301526137ec8184613799565b905092915050565b6000819050919050565b613807816137f4565b811461381257600080fd5b50565b600081359050613824816137fe565b92915050565b6000602082840312156138405761383f613674565b5b600061384e84828501613815565b91505092915050565b600073ffffffffffffffffffffffffffffffffffffffff82169050919050565b600061388282613857565b9050919050565b61389281613877565b82525050565b60006020820190506138ad6000830184613889565b92915050565b6138bc81613877565b81146138c757600080fd5b50565b6000813590506138d9816138b3565b92915050565b600080604083850312156138f6576138f5613674565b5b6000613904858286016138ca565b925050602061391585828601613815565b9150509250929050565b613928816137f4565b82525050565b6000602082019050613943600083018461391f565b92915050565b60008060006060848603121561396257613961613674565b5b6000613970868287016138ca565b9350506020613981868287016138ca565b925050604061399286828701613815565b9150509250925092565b6000602082840312156139b2576139b1613674565b5b60006139c0848285016138ca565b91505092915050565b600080fd5b600080fd5b7f4e487b7100000000000000000000000000000000000000000000000000000000600052604160045260246000fd5b613a0b82613788565b810181811067ffffffffffffffff82111715613a2a57613a296139d3565b5b80604052505050565b6000613a3d61366a565b9050613a498282613a02565b919050565b600067ffffffffffffffff821115613a6957613a686139d3565b5b613a7282613788565b9050602081019050919050565b82818337600083830152505050565b6000613aa1613a9c84613a4e565b613a33565b905082815260208101848484011115613abd57613abc6139ce565b5b613ac8848285613a7f565b509392505050565b600082601f830112613ae557613ae46139c9565b5b8135613af5848260208601613a8e565b91505092915050565b60008060408385031215613b1557613b14613674565b5b6000613b23858286016138ca565b925050602083013567ffffffffffffffff811115613b4457613b43613679565b5b613b5085828601613ad0565b9150509250929050565b600067ffffffffffffffff821115613b7557613b746139d3565b5b613b7e82613788565b9050602081019050919050565b6000613b9e613b9984613b5a565b613a33565b905082815260208101848484011115613bba57613bb96139ce565b5b613bc5848285613a7f565b509392505050565b600082601f830112613be257613be16139c9565b5b8135613bf2848260208601613b8b565b91505092915050565b600080600060608486031215613c1457613c13613674565b5b6000613c22868287016138ca565b935050602084013567ffffffffffffffff811115613c4357613c42613679565b5b613c4f86828701613bcd565b925050604084013567ffffffffffffffff811115613c7057613c6f613679565b5b613c7c86828701613bcd565b9150509250925092565b613c8f81613703565b8114613c9a57600080fd5b50565b600081359050613cac81613c86565b92915050565b60008060408385031215613cc957613cc8613674565b5b6000613cd7858286016138ca565b9250506020613ce885828601613c9d565b9150509250929050565b60008060008060808587031215613d0c57613d0b613674565b5b6000613d1a878288016138ca565b9450506020613d2b878288016138ca565b9350506040613d3c87828801613815565b925050606085013567ffffffffffffffff811115613d5d57613d5c613679565b5b613d6987828801613ad0565b91505092959194509250565b60008060408385031215613d8c57613d8b613674565b5b6000613d9a858286016138ca565b9250506020613dab858286016138ca565b9150509250929050565b7f4e487b7100000000000000000000000000000000000000000000000000000000600052602260045260246000fd5b60006002820490506001821680613dfc57607f821691505b60208210811415613e1057613e0f613db5565b5b50919050565b7f4552433732313a20617070726f76656420717565727920666f72206e6f6e657860008201527f697374656e7420746f6b656e0000000000000000000000000000000000000000602082015250565b6000613e72602c83613744565b9150613e7d82613e16565b604082019050919050565b60006020820190508181036000830152613ea181613e65565b9050919050565b7f4552433732313a20617070726f76616c20746f2063757272656e74206f776e6560008201527f7200000000000000000000000000000000000000000000000000000000000000602082015250565b6000613f04602183613744565b9150613f0f82613ea8565b604082019050919050565b60006020820190508181036000830152613f3381613ef7565b9050919050565b7f4552433732313a20617070726f76652063616c6c6572206973206e6f74206f7760008201527f6e6572206e6f7220617070726f76656420666f7220616c6c0000000000000000602082015250565b6000613f96603883613744565b9150613fa182613f3a565b604082019050919050565b60006020820190508181036000830152613fc581613f89565b9050919050565b7f4552433732313a207472616e736665722063616c6c6572206973206e6f74206f60008201527f776e6572206e6f7220617070726f766564000000000000000000000000000000602082015250565b6000614028603183613744565b915061403382613fcc565b604082019050919050565b600060208201905081810360008301526140578161401b565b9050919050565b7f455243373231456e756d657261626c653a206f776e657220696e646578206f7560008201527f74206f6620626f756e6473000000000000000000000000000000000000000000602082015250565b60006140ba602b83613744565b91506140c58261405e565b604082019050919050565b600060208201905081810360008301526140e9816140ad565b9050919050565b7f46756e6374696f6e206d7573742062652063616c6c6564207468726f7567682060008201527f64656c656761746563616c6c0000000000000000000000000000000000000000602082015250565b600061414c602c83613744565b9150614157826140f0565b604082019050919050565b6000602082019050818103600083015261417b8161413f565b9050919050565b7f46756e6374696f6e206d7573742062652063616c6c6564207468726f7567682060008201527f6163746976652070726f78790000000000000000000000000000000000000000602082015250565b60006141de602c83613744565b91506141e982614182565b604082019050919050565b6000602082019050818103600083015261420d816141d1565b9050919050565b7f455243373231456e756d657261626c653a20676c6f62616c20696e646578206f60008201527f7574206f6620626f756e64730000000000000000000000000000000000000000602082015250565b6000614270602c83613744565b915061427b82614214565b604082019050919050565b6000602082019050818103600083015261429f81614263565b9050919050565b7f4e487b7100000000000000000000000000000000000000000000000000000000600052603260045260246000fd5b7f4552433732313a206f776e657220717565727920666f72206e6f6e657869737460008201527f656e7420746f6b656e0000000000000000000000000000000000000000000000602082015250565b6000614331602983613744565b915061433c826142d5565b604082019050919050565b6000602082019050818103600083015261436081614324565b9050919050565b7f4f776e61626c653a2063616c6c6572206973206e6f7420746865206f776e6572600082015250565b600061439d602083613744565b91506143a882614367565b602082019050919050565b600060208201905081810360008301526143cc81614390565b9050919050565b600081905092915050565b60006143e982613739565b6143f381856143d3565b9350614403818560208601613755565b80840191505092915050565b600061441b82846143de565b915081905092915050565b7f54686973206164647265737320616c726561647920686173206120636572746960008201527f66696361746520666f722074686973206576656e740000000000000000000000602082015250565b6000614482603583613744565b915061448d82614426565b604082019050919050565b600060208201905081810360008301526144b181614475565b9050919050565b7f4552433732313a2062616c616e636520717565727920666f7220746865207a6560008201527f726f206164647265737300000000000000000000000000000000000000000000602082015250565b6000614514602a83613744565b915061451f826144b8565b604082019050919050565b6000602082019050818103600083015261454381614507565b9050919050565b7f496e697469616c697a61626c653a20636f6e747261637420697320616c72656160008201527f647920696e697469616c697a6564000000000000000000000000000000000000602082015250565b60006145a6602e83613744565b91506145b18261454a565b604082019050919050565b600060208201905081810360008301526145d581614599565b9050919050565b7f4552433732313a20617070726f766520746f2063616c6c657200000000000000600082015250565b6000614612601983613744565b915061461d826145dc565b602082019050919050565b6000602082019050818103600083015261464181614605565b9050919050565b7f4f776e61626c653a206e6577206f776e657220697320746865207a65726f206160008201527f6464726573730000000000000000000000000000000000000000000000000000602082015250565b60006146a4602683613744565b91506146af82614648565b604082019050919050565b600060208201905081810360008301526146d381614697565b9050919050565b7f4552433732313a206f70657261746f7220717565727920666f72206e6f6e657860008201527f697374656e7420746f6b656e0000000000000000000000000000000000000000602082015250565b6000614736602c83613744565b9150614741826146da565b604082019050919050565b6000602082019050818103600083015261476581614729565b9050919050565b7f4552433732313a207472616e73666572206f6620746f6b656e2074686174206960008201527f73206e6f74206f776e0000000000000000000000000000000000000000000000602082015250565b60006147c8602983613744565b91506147d38261476c565b604082019050919050565b600060208201905081810360008301526147f7816147bb565b9050919050565b7f4552433732313a207472616e7366657220746f20746865207a65726f2061646460008201527f7265737300000000000000000000000000000000000000000000000000000000602082015250565b600061485a602483613744565b9150614865826147fe565b604082019050919050565b600060208201905081810360008301526148898161484d565b9050919050565b7f4e487b7100000000000000000000000000000000000000000000000000000000600052601160045260246000fd5b60006148ca826137f4565b91506148d5836137f4565b9250828210156148e8576148e7614890565b5b828203905092915050565b60006148fe826137f4565b9150614909836137f4565b9250827fffffffffffffffffffffffffffffffffffffffffffffffffffffffffffffffff0382111561493e5761493d614890565b5b828201905092915050565b7f45524331393637557067726164653a207570677261646520627265616b73206660008201527f7572746865722075706772616465730000000000000000000000000000000000602082015250565b60006149a5602f83613744565b91506149b082614949565b604082019050919050565b600060208201905081810360008301526149d481614998565b9050919050565b7f4552433732313a206d696e7420746f20746865207a65726f2061646472657373600082015250565b6000614a11602083613744565b9150614a1c826149db565b602082019050919050565b60006020820190508181036000830152614a4081614a04565b9050919050565b7f4552433732313a20746f6b656e20616c7265616479206d696e74656400000000600082015250565b6000614a7d601c83613744565b9150614a8882614a47565b602082019050919050565b60006020820190508181036000830152614aac81614a70565b9050919050565b7f45524337323155524953746f726167653a2055524920736574206f66206e6f6e60008201527f6578697374656e7420746f6b656e000000000000000000000000000000000000602082015250565b6000614b0f602e83613744565b9150614b1a82614ab3565b604082019050919050565b60006020820190508181036000830152614b3e81614b02565b9050919050565b7f4552433732313a207472616e7366657220746f206e6f6e20455243373231526560008201527f63656976657220696d706c656d656e7465720000000000000000000000000000602082015250565b6000614ba1603283613744565b9150614bac82614b45565b604082019050919050565b60006020820190508181036000830152614bd081614b94565b9050919050565b7f45524337323155524953746f726167653a2055524920717565727920666f722060008201527f6e6f6e6578697374656e7420746f6b656e000000000000000000000000000000602082015250565b6000614c33603183613744565b9150614c3e82614bd7565b604082019050919050565b60006020820190508181036000830152614c6281614c26565b9050919050565b6000614c7582856143de565b9150614c8182846143de565b91508190509392505050565b7f455243313936373a206e657720696d706c656d656e746174696f6e206973206e60008201527f6f74206120636f6e747261637400000000000000000000000000000000000000602082015250565b6000614ce9602d83613744565b9150614cf482614c8d565b604082019050919050565b60006020820190508181036000830152614d1881614cdc565b9050919050565b7f416464726573733a2064656c65676174652063616c6c20746f206e6f6e2d636f60008201527f6e74726163740000000000000000000000000000000000000000000000000000602082015250565b6000614d7b602683613744565b9150614d8682614d1f565b604082019050919050565b60006020820190508181036000830152614daa81614d6e565b9050919050565b600081519050919050565b600081905092915050565b6000614dd282614db1565b614ddc8185614dbc565b9350614dec818560208601613755565b80840191505092915050565b6000614e048284614dc7565b915081905092915050565b600082825260208201905092915050565b6000614e2b82614db1565b614e358185614e0f565b9350614e45818560208601613755565b614e4e81613788565b840191505092915050565b6000608082019050614e6e6000830187613889565b614e7b6020830186613889565b614e88604083018561391f565b8181036060830152614e9a8184614e20565b905095945050505050565b600081519050614eb4816136aa565b92915050565b600060208284031215614ed057614ecf613674565b5b6000614ede84828501614ea5565b91505092915050565b7f4552433732314d657461646174613a2055524920717565727920666f72206e6f60008201527f6e6578697374656e7420746f6b656e0000000000000000000000000000000000602082015250565b6000614f43602f83613744565b9150614f4e82614ee7565b604082019050919050565b60006020820190508181036000830152614f7281614f36565b9050919050565b6000614f84826137f4565b91507fffffffffffffffffffffffffffffffffffffffffffffffffffffffffffffffff821415614fb757614fb6614890565b5b600182019050919050565b7f4e487b7100000000000000000000000000000000000000000000000000000000600052601260045260246000fd5b6000614ffc826137f4565b9150615007836137f4565b92508261501757615016614fc2565b5b828204905092915050565b600061502d826137f4565b9150615038836137f4565b92508261504857615047614fc2565b5b828206905092915050565b7f4e487b7100000000000000000000000000000000000000000000000000000000600052603160045260246000fdfe416464726573733a206c6f772d6c6576656c2064656c65676174652063616c6c206661696c6564a2646970667358221220805af27675c460ee6f4d263e1a67b5238c78111522f570847190787036c831fd64736f6c63430008090033",
  "linkReferences": {},
  "deployedLinkReferences": {}
}